:020000021000EC
:10000000F8FF05102110050075100500B50101006D
:10001000BB010100C1010100C70101000000000097
:1000200000000000000000000000000019020100B4
:100030007710050000000000B1020100C1020100BC
:10004000771005009518010077100500771005005E
:100050007710050077100500771005007710050070
:100060007710050077100500771005007710050060
:1000700019D803003D080500ED0E05001516050012
:100080001B16050077100500771005007710050096
:100090007710050077100500771005007710050030
:1000A0007710050077100500771005007710050020
:1000B000771005005D1B0100771005007710050023
:1000C0000000000000000000000000000000000030
:1000D0000000000000000000000000000000000020
:1000E0000000000000000000000000000000000010
:1000F0000000000000000000000000000000000000
:1001000010B5054C237833B9044B13B10448AFF351
:1001100000800123237010BDC012001000000000F9
:1001200014DF060008B5034B1BB103490348AFF3C6
:10013000008008BD00000000C412001014DF06009B
:10014000154B002B08BF134B9D46A3F5803A0021A9
:100150008B460F461348144A121A47F021F90F4BE9
:10016000002B00D098470E4B002B00D09847002062
:10017000002104000D000D48002802D00C483EF07C
:1001800015FA47F04DF8200029003EF06DF93EF0D9
:1001900009FC00BF00000800F8FF05100000000087
:1001A000C5E30400C0120010D0C00010ADE504008B
:1001B00000000000102300F007B8202300F004B86E
:1001C000302300F001B840239C46F0B404AE7546DD
:1001D000E80801D3EFF309860E4F0FCE0FC70FBC0F
:1001E0000FC74046494652465B460FC71DCE3100F9
:1001F000A60A00D304316E0900D248311FC7EFF3BD
:1002000009806946EFF3148663C7604601493DF0F3
:1002100037FB00BF786C00101EF0040F0CBFEFF32B
:100220000880EFF30980816911F8021C91BB01B5C8
:1002300090E80F10E047BDE800508CE80300244B25
:1002400093E80600914208BF704741B91EF0100FB5
:1002500010D12049086820F0010008600AE02CE96C
:10026000F00F1EF0100F08BF2CED108AC1F838C037
:1002700081F822E01A6092F82210906B61F0FF0E74
:100280001EF0100F08BFB0EC108AB0E8F00F80F33A
:1002900009887047104A13689942FAD801B552F894
:1002A00021C00FC8E047BDE80050CCF800007047FF
:1002B00001B53FF015FCBDE80140EFF3098CBEE746
:1002C00001B53FF0D5FBBDE80140EFF3098CB6E77F
:1002D0007806001034EF00E0BCA6060081F0004173
:1002E00002E000BF83F0004330B54FEA41044FEA1B
:1002F000430594EA050F08BF90EA020F1FBF54EAB6
:10030000000C55EA020C7FEA645C7FEA655C00F051
:10031000E2804FEA5454D4EB5555B8BF6D420CDD22
:100320002C4480EA020281EA030382EA000083EAA5
:10033000010180EA020281EA0303362D88BF30BD45
:1003400011F0004F4FEA01314FF4801C4CEA11319B
:1003500002D0404261EB410113F0004F4FEA0333FA
:100360004CEA133302D0524263EB430394EA050F85
:1003700000F0A780A4F10104D5F1200E0DDB02FAF4
:100380000EFC22FA05F2801841F1000103FA0EF288
:10039000801843FA05F359410EE0A5F120050EF14E
:1003A000200E012A03FA0EFC28BF4CF0020C43FA7F
:1003B00005F3C01851EBE37101F0004507D54FF08C
:1003C000000EDCF1000C7EEB00006EEB0101B1F5DC
:1003D000801F1BD3B1F5001F0CD349085FEA300022
:1003E0004FEA3C0C04F101044FEA445212F5800F2D
:1003F00080F09A80BCF1004F08BF5FEA500C50F1CA
:10040000000041EB045141EA050130BD5FEA4C0CAC
:10041000404141EB010111F4801FA4F10104E9D135
:1004200091F0000F04BF01460020B1FA81F308BF2C
:100430002033A3F10B03B3F120020CDA0C3208DDF8
:1004400002F1140CC2F10C0201FA0CF021FA02F1D3
:100450000CE002F11402D8BFC2F1200C01FA02F143
:1004600020FA0CFCDCBF41EA0C019040E41AA2BF68
:1004700001EB0451294330BD6FEA04041F3C1CDA30
:100480000C340EDC04F11404C4F1200220FA04F050
:1004900001FA02F340EA030021FA04F345EA0301FA
:1004A00030BDC4F10C04C4F1200220FA02F001FABC
:1004B00004F340EA0300294630BD21FA04F029463E
:1004C00030BD94F0000F83F4801306BF81F48011D7
:1004D0000134013D4EE77FEA645C18BF7FEA655C4A
:1004E00029D094EA050F08BF90EA020F05D054EA1C
:1004F000000C04BF1946104630BD91EA030F1EBF21
:100500000021002030BD5FEA545C05D14000494124
:1005100028BF41F0004130BD14F580043CBF01F517
:10052000801130BD01F0004545F0FE4141F47001FD
:100530004FF0000030BD7FEA645C1ABF19461046D8
:100540007FEA655C1CBF0B46024650EA013406BFD9
:1005500052EA033591EA030F41F4002130BD00BF98
:1005600090F0000F04BF0021704730B54FF4806455
:1005700004F132044FF000054FF0000150E700BFD6
:1005800090F0000F04BF0021704730B54FF4806435
:1005900004F1320410F0004548BF40424FF0000122
:1005A0003EE700BF42004FEAE2014FEA31014FEA65
:1005B00002701FBF12F07F4393F07F4F81F06051B4
:1005C000704732F07F4208BF704793F07F4F04BFFF
:1005D00041F40021704730B54FF4607401F00045DC
:1005E00021F000411CE700BF50EA010208BF70473C
:1005F00030B54FF000050AE050EA010208BF70472D
:1006000030B511F0004502D5404261EB41014FF495
:10061000806404F132045FEA915C3FF4D8AE4FF09D
:1006200003025FEADC0C18BF03325FEADC0C18BF80
:10063000033202EBDC02C2F1200300FA03FC20FAD1
:1006400002F001FA03FE40EA0E0021FA02F114441E
:10065000BDE600BF70B54FF0FF0C4CF4E06C1CEA37
:1006600011541DBF1CEA135594EA0C0F95EA0C0FA8
:1006700000F0DEF82C4481EA030621EA4C5123EA1B
:100680004C5350EA013518BF52EA033541F480114A
:1006900043F4801338D0A0FB02CE4FF00005E1FBFD
:1006A00002E506F00042E0FB03E54FF00006E1FB47
:1006B00003569CF0000F18BF4EF0010EA4F1FF048A
:1006C000B6F5007F64F5407404D25FEA4E0E6D41CA
:1006D00046EB060642EAC62141EA55514FEAC520DB
:1006E00040EA5E504FEACE2EB4F1FD0C88BFBCF557
:1006F000E06F1ED8BEF1004F08BF5FEA500E50F108
:10070000000041EB045170BD06F0004646EA0101CD
:1007100040EA020081EA0301B4EB5C04C2BFD4EBFF
:100720000C0541EA045170BD41F480114FF0000EF8
:10073000013C00F3AB8014F1360FDEBF002001F066
:10074000004170BDC4F10004203C35DA0C341BDCE0
:1007500004F11404C4F1200500FA05F320FA04F0B2
:1007600001FA05F240EA020001F0004221F00041E6
:1007700010EBD37021FA04F642EB06015EEA430E59
:1007800008BF20EAD37070BDC4F10C04C4F1200589
:1007900000FA04F320FA05F001FA04F240EA02003C
:1007A00001F0004110EBD37041F100015EEA430E0D
:1007B00008BF20EAD37070BDC4F1200500FA05F22D
:1007C0004EEA020E20FA04F301FA05F243EA0203AC
:1007D00021FA04F001F0004121FA04F220EA0200BB
:1007E00000EBD3705EEA430E08BF20EAD37070BD01
:1007F00094F0000F0FD101F00046400041EB0101E1
:1008000011F4801F08BF013CF7D041EA060195F0C2
:10081000000F18BF704703F00046520043EB03037C
:1008200013F4801F08BF013DF7D043EA0603704769
:1008300094EA0C0F0CEA135518BF95EA0C0F0CD074
:1008400050EA410618BF52EA4306D1D181EA0301BA
:1008500001F000414FF0000070BD50EA410606BFB4
:100860001046194652EA430619D094EA0C0F02D1F9
:1008700050EA013613D195EA0C0F05D152EA03363E
:100880001CBF104619460AD181EA030101F000415C
:1008900041F0FE4141F470014FF0000070BD41F0A5
:1008A000FE4141F4780170BD70B54FF0FF0C4CF47F
:1008B000E06C1CEA11541DBF1CEA135594EA0C0F9E
:1008C00095EA0C0F00F0A7F8A4EB050481EA030EEB
:1008D00052EA03354FEA013100F088804FEA0333D2
:1008E0004FF0805545EA131343EA12634FEA0222A0
:1008F00045EA111545EA10654FEA00260EF0004161
:100900009D4208BF964244F1FD0404F5407402D2B2
:100910005B084FEA3202B61A65EB03055B084FEA43
:1009200032024FF480104FF4002CB6EB020E75EB40
:10093000030E22BFB61A754640EA0C005B084FEA68
:100940003202B6EB020E75EB030E22BFB61A7546E5
:1009500040EA5C005B084FEA3202B6EB020E75EB30
:10096000030E22BFB61A754640EA9C005B084FEAA8
:100970003202B6EB020E75EB030E22BFB61A7546B5
:1009800040EADC0055EA060E18D04FEA051545EAA4
:1009900016754FEA06164FEAC30343EA52734FEA4D
:1009A000C2025FEA1C1CC0D111F4801F0BD141EAC6
:1009B00000014FF000004FF0004CB6E711F4801F2B
:1009C00004BF01430020B4F1FD0C88BFBCF5E06F0B
:1009D0003FF6AFAEB5EB030C04BFB6EB020C5FEA1B
:1009E000500C50F1000041EB045170BD0EF0004E70
:1009F0004EEA113114EB5C04C2BFD4EB0C0541EAA2
:100A0000045170BD41F480114FF0000E013C90E69E
:100A100045EA060E8DE60CEA135594EA0C0F08BF62
:100A200095EA0C0F3FF43BAF94EA0C0F0AD150EA61
:100A300001347FF434AF95EA0C0F7FF425AF1046F4
:100A400019462CE795EA0C0F06D152EA03353FF41C
:100A5000FDAE1046194622E750EA410618BF52EA99
:100A600043067FF4C5AE50EA41047FF40DAF52EA6D
:100A700043057FF4EBAE12E74FF0FF3C06E000BF0A
:100A80004FF0010C02E000BF4FF0010C4DF804CD17
:100A90004FEA410C7FEA6C5C4FEA430C18BF7FEAD7
:100AA0006C5C1BD001B050EA410C0CBF52EA430C05
:100AB00091EA030F02BF90EA020F0020704710F185
:100AC000000F91EA030F58BF994208BF90422CBF14
:100AD000D8176FEAE37040F0010070474FEA410C0D
:100AE0007FEA6C5C02D150EA013C07D14FEA430C2B
:100AF0007FEA6C5CD6D152EA033CD3D05DF8040B9C
:100B0000704700BF8446104662468C4619466346CD
:100B100000E000BF01B5FFF7B7FF002848BF10F1A4
:100B2000000F01BD4DF808EDFFF7F4FF0CBF0120E9
:100B300000205DF808FB00BF4DF808EDFFF7EAFF65
:100B400034BF012000205DF808FB00BF4DF808ED20
:100B5000FFF7E0FF94BF012000205DF808FB00BF15
:100B60004DF808EDFFF7CEFF94BF012000205DF89F
:100B700008FB00BF4DF808EDFFF7C4FF34BF0120AC
:100B800000205DF808FB00BF4FEA410C7FEA6C5C77
:100B900002D150EA013C0AD14FEA430C7FEA6C5C77
:100BA00002D152EA033C02D14FF0000070474FF0EF
:100BB000010070474FEA410212F5001215D211D51B
:100BC0006FF47873B3EB625212D94FEAC12343F04A
:100BD000004343EA505311F0004F23FA02F018BFCC
:100BE000404270474FF00000704750EA013005D195
:100BF00011F0004008BF6FF0004070474FF0000058
:100C0000704700BF4A0011D212F5001211D20DD563
:100C10006FF47873B3EB62520ED44FEAC12343F002
:100C2000004343EA505323FA02F070474FF00000AC
:100C3000704750EA013002D14FF0FF3070474FF05B
:100C4000000070474FEA4102B2F1E04324BFB3F520
:100C5000001CDCF1FE5C0DD901F0004C4FEAC00233
:100C60004CEA5070B2F1004F40EB830008BF20F017
:100C70000100704711F0804F21D113F13872BCBFD1
:100C800001F00040704741F480114FEA5252C2F126
:100C90001802C2F1200C10FA0CF320FA02F018BF6F
:100CA00040F001004FEAC1234FEAD32303FA0CFCC2
:100CB00040EA0C0023FA02F34FEA4303CCE77FEA51
:100CC000625307D150EA01331EBF4FF0FE4040F49B
:100CD0004000704701F0004040F0FE4040F400004A
:100CE000704700BF80F0004002E000BF81F000418B
:100CF00042001FBF5FEA410392EA030F7FEA226CC2
:100D00007FEA236C6AD04FEA1262D2EB1363C1BF51
:100D1000D218414048404140B8BF5B42192B88BFC0
:100D2000704710F0004F40F4000020F07F4018BFE3
:100D3000404211F0004F41F4000121F07F4118BF03
:100D4000494292EA030F3FD0A2F1010241FA03FCAB
:100D500010EB0C00C3F1200301FA03F100F0004393
:100D600002D5494260EB4000B0F5000F13D3B0F15B
:100D7000807F06D340084FEA310102F10102FE2ACA
:100D800051D2B1F1004F40EBC25008BF20F001003A
:100D900040EA03007047490040EB000010F4000FE8
:100DA000A2F10102EDD1B0FA80FCACF1080CB2EB7B
:100DB0000C0200FA0CF0AABF00EBC25052421843DA
:100DC000BCBFD0401843704792F0000F81F400017F
:100DD00006BF80F400000132013BB5E74FEA410352
:100DE0007FEA226C18BF7FEA236C21D092EA030FBE
:100DF00004D092F0000F08BF0846704790EA010F38
:100E00001CBF0020704712F07F4F04D1400028BF64
:100E100040F00040704712F100723CBF00F5000046
:100E2000704700F0004343F0FE4040F4000070477C
:100E30007FEA226216BF08467FEA23630146420228
:100E400006BF5FEA412390EA010F40F4800070473B
:100E50004FF0000304E000BF10F0004348BF4042E1
:100E60005FEA000C08BF704743F0964301464FF01D
:100E700000001CE050EA010208BF70474FF0000379
:100E80000AE000BF50EA010208BF704711F00043BA
:100E900002D5404261EB41015FEA010C02BF84468A
:100EA0000146002043F0B64308BFA3F18053A3F5E9
:100EB0000003BCFA8CF2083AA3EBC25310DB01FA30
:100EC00002FC634400FA02FCC2F12002BCF1004FB4
:100ED00020FA02F243EB020008BF20F00100704745
:100EE00002F1200201FA02FCC2F1200250EA4C0099
:100EF00021FA02F243EB020008BF20EADC707047DF
:100F00007BB972B90029BEBF00204FF0004106E056
:100F100008BF00281CBF6FF000414FF0FF3000F009
:100F2000DDB9ADF1080C6DE904CE002909DB002B19
:100F30001ADB00F06BF8DDF804E0DDE9022304B011
:100F40007047404261EB4101002B1BDB00F05EF873
:100F5000DDF804E0DDE9022304B0404261EB410129
:100F6000524263EB43037047524263EB430300F08A
:100F70004DF8DDF804E0DDE9022304B0404261EB06
:100F800041017047524263EB430300F03FF8DDF844
:100F900004E0DDE9022304B0524263EB43037047EF
:100FA00053B94AB9002908BF00281CBF4FF0FF31D0
:100FB0004FF0FF3000F092B9ADF1080C6DE904CEAE
:100FC00000F024F8DDF804E0DDE9022304B0704706
:100FD000D0B500220B4B06460F46FFF73BFBFFF751
:100FE00011FE0446FFF7BCFA0022074BFFF732FB65
:100FF00002460B4630463946FFF774F9FFF702FE0A
:101000002146D0BD0000F03D0000F0412DE9F04741
:10101000089E04468846002B40F085808A4215468B
:1010200048D9B2FA82F24AB1C2F1200701FA02F3BA
:1010300020FA07F7954047EA030894404FEA154E17
:10104000230CB8FBFEF71FFA85FC0EFB178843EA5A
:10105000084307FB0CF1994209D9EB1807F1FF305F
:1010600080F0E380994240F2E080023F2B445B1A1B
:10107000A4B2B3FBFEF00EFB103344EA034400FBC2
:101080000CFCA44509D92C1900F1FF3380F0CB806A
:10109000A44540F2C88002382C4440EA0740A4EB43
:1010A0000C0400271EB1D4400023C6E90043394692
:1010B000BDE8F087002A53D0B2FA82F2002A40F04D
:1010C000B680491B4FEA154E1FFA85F80127B1FB80
:1010D000FEFC230C0EFB1C1143EA014308FB0CF140
:1010E000994207D9EB180CF1FF3002D2994200F275
:1010F000EC808446591AA3B2B1FBFEF00EFB10142B
:1011000043EA044408FB00F8A04507D92C1900F174
:10111000FF3302D2A04500F2DC801846A4EB08049D
:1011200040EA0C40BEE78B4208D9002E78D0002759
:10113000C6E9000138463946BDE8F087B3FA83F7BF
:101140007FB98B4202D3824200F2BD80841A61EBE8
:10115000030301209846002EA9D0C6E90048A6E75F
:10116000FFDEC7F12005BB4022FA05FC4CEA030C68
:1011700001FA07F420FA05F821FA05F34FEA1C4EAC
:1011800048EA0404B3FBFEF9210C0EFB19331FFAE5
:101190008CF841EA034309FB08FA9A4502FA07F280
:1011A00000FA07F10BD91CEB030309F1FF3080F0C3
:1011B00088809A4540F28580A9F102096344A3EB37
:1011C0000A03A4B2B3FBFEF00EFB103344EA03445F
:1011D00000FB08F8A04508D91CEB040400F1FF331C
:1011E0006BD2A04569D90238644440EA0940A4EBB7
:1011F0000804A0FB02894C45C6464B4654D351D047
:10120000002E69D0B1EB0E0264EB030404FA05F57D
:1012100022FA07F3FC401D43C6E90054002746E7C5
:101220003746304643E7184637E707461FE7C2F11F
:10123000200320FA03F7954001FA02F021FA03F3A4
:101240004FEA154E3843010CB3FBFEF71FFA85F841
:101250000EFB173341EA034107FB08F38B4204FA04
:1012600002F407D9691807F1FF3C28D28B4226D92E
:10127000023F2944CB1A81B2B3FBFEF00EFB1033C0
:1012800041EA034100FB08F38B4207D9691800F1DA
:10129000FF3C10D28B420ED902382944C91A40EAC9
:1012A000074714E74145ABD2B8EB020E69EB0C02DD
:1012B00001381346A4E76046F0E7184695E767460D
:1012C000D8E781467BE7384645E7ACF1020C2B4472
:1012D00010E702382C4421E73746E8E6704700BFA4
:1012E00010F8012B11F8013B012A28BF9A42F7D0D0
:1012F000D01A7047034613F8012B002AFBD1181AA5
:101300000138704738B50022002304460D46FFF728
:1013100013FC28B920462946BDE83840FFF758BEDF
:10132000204605F10041FFF753FE404261EB4101C9
:1013300038BD00BF0020704770470000014B0122FC
:101340001A707047E4120010014B01221A707047A6
:10135000E5120010014B01221A707047E6120010CE
:1013600000787047F0B589B001AC014625460020F1
:101370000A268B0803EB510303EB131303EB132330
:1013800003EB1343DB088F1D06FB137703EB1713E7
:1013900006FB1311303104F8011B01301946002BF4
:1013A000E7D152B1511E034613F1FF3303D3EC5C76
:1013B00001F8014FF8E70023135409B0F0BD000015
:1013C000B5EE400AF1EE10FA2DE9F04106468846E6
:1013D000174604D1454B03600320BDE8F08110EEB1
:1013E000102AC2F3C751A1F17F03C2F316051E2BC9
:1013F00045F4000574DC13F1170F74DB162B0FDDB9
:10140000A1F19600002A05FA00F02CDB34460025F5
:1014100000282BD0DEBF2D2304F8013B40420DE015
:10142000002B15DBC3F117007E3945FA00F0002AC6
:1014300005FA01F525F07F4510DB34462246C11739
:10144000FFF790FF234613F8012B92B11C46F9E7F2
:10145000DB43002A45FA03F507DA002034462D2342
:1014600004F8013BD4E70025F8E70446302304F8EC
:10147000013B2E23237035B93023A01C6370002359
:101480000370801BA9E7631C981B3F1A781E8045D8
:10149000A8BF804619460A20E4430F194543474533
:1014A0004FEA256205DA303201F8012B25F07F453D
:1014B000F3E7B8F1000FACBF03EB0800181C042AD7
:1014C000DDDD431E3021B342D9D31A782E2A02D053
:1014D000392A02D11970013BF5E701321A70CEE7C3
:1014E0006FF0010079E74FF0FF3076E7302E3000E3
:1014F0007047000010B5044B044640F8103B19F04B
:10150000F0FA204610BD00BFC499050010B5044B89
:10151000044640F8083B19F0E4FA204610BD00BF2D
:101520000C9A05000346806C08B118F058B9D86CC5
:1015300008B116F027BE4FF0FF30704700787047B3
:10154000007870470078704770B505460C4608462D
:1015500049B1FFF7CFFE2B680246214628465B685B
:10156000BDE87040184770BD70B500F118050E4613
:101570002946044615F0DFFD31462846012215F0C4
:10158000CFFD2046BDE8704015F01EBE00B50A46EE
:10159000D0F880148FB051B100236846ADF8003008
:1015A0008DF8023018F0E6FA0FB05DF804FBD0F8C1
:1015B00084040028F8D08DF83110ADF832100B46B5
:1015C0000146684617F067F8EEE700B50A46D0F81E
:1015D00080148FB079B10023ADF800308DF802305F
:1015E0006846012318F0C6FA10B1684618F024FFC7
:1015F0000FB05DF804FBD0F884040028F8D08DF813
:101600003110ADF8321001230146684617F043F857
:1016100008B90020ECE7684617F0C7F90028F8D0B1
:10162000E6E7836B5BB1187810F008001EBFD8693D
:101630005B69C01A0028B8BF6FF000407047C06BEC
:10164000A0B190F831301B0711D5D0E90432D0E9B0
:1016500000105B1A62EB00021846114600236FF07F
:1016600000428B4208BF824238BF104670470023B9
:101670001A46F1E708B51030FFF7D3FF08BD10B4E4
:10168000846B24B120465DF8044B18F06FB8C06B32
:1016900018B15DF8044B16F03CBD4FF0FF305DF81B
:1016A000044B7047836B13B1D86900217047C36B3B
:1016B00013B1D3E9040170471846F6E7836B33B1E1
:1016C0001B7813F0D00F14BF012000207047C06BAF
:1016D0000028FBD090F8313013F0500FF3E70000F2
:1016E0001346074A10B40C46116821B122465DF832
:1016F000044B19F007BA08465DF8044B704700BF69
:10170000982B00100346806B08B117F071BFD86B9F
:1017100008B116F040BC4FF0FF30704707B501220A
:101720000DF107011030FFF7EDFF01280CBF9DF808
:1017300007004FF0FF3003B05DF804FB10B504461E
:10174000806B10B1002118F07AF8E06B28B100220C
:101750000023BDE8104016F02BBD10BD0346806B82
:1017600008B118F06BB9D86B08B117F0D3B970474E
:1017700008B51030FFF7F2FF08BDF0B4D0F838C05C
:101780009DF810409DF814509DF818609DF81C704D
:10179000BCF1000F07D0CDE90667CDE904456046EE
:1017A000F0BC18F018BAC06B30B1CDE90667CDE9CE
:1017B0000445F0BC17F027BAF0BC70470346806BB5
:1017C00008B118F05DBAD86B08B117F00FBB7047BD
:1017D00007B501228DF8071008300DF10701FFF75A
:1017E000EDFF03B05DF804FB08B51030FFF7E6FF2E
:1017F00008BD07B501228DF8071010300DF1070163
:10180000FFF7DCFF03B05DF804FB00000000000000
:10181000002310B583814FF0FF3303610CA3D3E99C
:101820000023C0E906230CA3D3E90023C0E9082361
:101830000BA3D3E90023C0E90A230BA3D3E90023B8
:101840000446C0E90C23383029F0CEF9204610BDFB
:10185000D5CC5A0A48FB2F3FD5CC5A0A48FB3F3F0C
:10186000E69315C3D501503F51FA42C879FF5F3F57
:1018700070B500F138050E462946044628F015FFDC
:1018800031462846012229F0B7F92046BDE87040CC
:1018900029F08EB808B5064829F0FAF9054B1B78EF
:1018A00023B10348BDE8084029F0EAB908BD00BFEC
:1018B000182C00100401001010B5064C142320460B
:1018C0001022022129F0B6F92046BDE8104029F087
:1018D000CBB900BF182C0010084B93F86D2052B9FB
:1018E000D3E9042306480021994208BF904234BF3F
:1018F0000120002070470020704700BF0801001041
:101900007F841E0010B5064C94F8880038B10B2077
:1019100029F0BAFE94F889301B1A5842584110BD7C
:101920000801001070B5124C94F88A5015B90025C2
:10193000284670BDD4E924239A42F8D00D4E304693
:1019400019F016FED6E905323C2101FB0323D4E948
:101950002412914204DD8B42EADA9342E8DBE6E7A7
:101960008B42E4DB9342ACBF00250125E0E700BFDA
:1019700008010010C016001070B5FFF7C3FF214C1E
:1019800088B1D4F88C304FF47A7058431E4B98428B
:1019900098BFC0034FF47A738ABFB0FBF3F0B0FB7B
:1019A000F3F0C00370BDFFF7BDFF18B3174DD4F8B7
:1019B0008C60284619F0DCFDD5E90531D4F8940097
:1019C0003C2250434A434FF4616101FB0323EA691F
:1019D0001344C31A48BF03F5A833D4F88C2048BF7A
:1019E00003F5C0739A424FF47A70D4BF704303FB7F
:1019F0000000CBE74FF47A720023D4E90401FFF72B
:101A0000CFFAC3E708010010B7FF0100C0160010AD
:101A100008B5FFF761FF30B9FFF784FF18B9BDE8DB
:101A20000840FFF76FBF012008BD0000114B196887
:101A3000114B10B51C6860B960F3471160F347148F
:101A400008203FF019FB21460920BDE810403FF077
:101A500013BB012805D1022363F3471163F3471435
:101A6000EEE7062801D10323F6E70C280CBF042378
:101A70000523F1E770A7060074A70600034B196859
:101A8000022363F3471106203FF0F6BA64A706006D
:101A900008B50A4B19680C2041F007013FF0ECFA39
:101AA000074B196801F0180343F0270363F307019C
:101AB0000D20BDE808403FF0DFBA00BF60A7060078
:101AC0005CA7060030B50D4C85B00546204619F0E0
:101AD0004FFD237FA2680393237E0293237D01930E
:101AE00002F5FA62237C009392B2237B022105F176
:101AF0001000FFF742FE05B030BD00BFC016001059
:101B000030B5154C85B00546204619F031FD237FD0
:101B1000A2680393237E0293237D01931035237CD7
:101B2000009302F5FA62237B92B201212846FFF767
:101B300024FE237FA2680393237E0293237D0193D7
:101B400002F5FA62237C009392B2237B042128469B
:101B5000FFF713FE05B030BDC016001008B5002019
:101B600043F080FB430604D54020BDE8084043F025
:101B700073BB08BD2DE9F047DFF85090DFF850A0A7
:101B8000114E8046154608464F1CC047044660B1BA
:101B90000146484629F00CF99AF885301BB12146D8
:101BA000304629F005F93946EDE75DB1074829F0DF
:101BB00003F9074B93F8853023B10348BDE8F0479C
:101BC00029F0FAB8BDE8F087202C0010A82D0010ED
:101BD00008010010014600220148FFF7CBBF00BFFB
:101BE00061130100014600220148FFF7C3BF00BF97
:101BF00041150100014601220148FFF7BBBF00BFAC
:101C000045150100014601220148FFF7B3BF00BF9F
:101C10003D1501002DE9F04311491248A5B0FFF729
:101C2000B5FC18B10E490F48FFF7CFFC00254FF463
:101C30007A73CDE9115340F209220B4B08491093F6
:101C400014A8CDE92255FFF74BFD88B90748FFF7E7
:101C5000D9FF10A8FFF74EFC25B0BDE8F08300BF08
:101C6000D0F90500581A0010E8990500E1F90500BF
:101C7000CB4CCC490DF118080BA829F016FB0A2211
:101C80002168404629F071FB41460BA829F007FC6A
:101C9000014610A829F0A2F8404629F0C0FA0BA886
:101CA00029F0BDFAC0490BA829F0FFFA0A226168A1
:101CB000404629F05AFB41460BA829F0F0FB0146AB
:101CC00010A829F08BF8404629F0A9FA0BA829F0B2
:101CD000A6FAB6490BA829F0E8FA0A22A1684046FC
:101CE00029F043FB41460BA829F0D9FB014610A877
:101CF00029F074F8404629F092FA0BA829F08FFADF
:101D0000AB490BA829F0D1FA0A22E168404629F034
:101D10002CFB41460BA829F0C2FB014610A829F074
:101D20005DF8404629F07BFA0BA829F078FAD4E94F
:101D3000046756EA070340F047873023ADF82C309C
:101D40009C4903A829F0B1FA0BA9684629F0ADFA1D
:101D5000694603A829F0A3FB014610A829F03EF824
:101D6000684629F05CFA03A829F059FA924903A8B9
:101D700029F09BFA0A22217E684629F0F6FA694684
:101D800003A829F08CFB014610A829F027F8684623
:101D900029F045FA03A829F042FA884903A829F056
:101DA00084FA0A22617E684629F0DFFA694603A8B0
:101DB00029F075FB014610A829F010F8684629F0B3
:101DC0002EFA03A829F02BFA7D4903A829F06DFA11
:101DD0000A22A17E684629F0C8FA694603A829F0BC
:101DE0005EFB014610A828F0F9FF684629F017FAB3
:101DF00003A829F014FA734903A829F056FA0A2215
:101E0000E17E684629F0B1FA694603A829F047FB4C
:101E1000014610A828F0E2FF684629F000FA03A85E
:101E200029F0FDF9684903A829F03FFA0A22217F29
:101E3000684629F09AFA694603A829F030FB014662
:101E400010A828F0CBFF684629F0E9F903A829F08B
:101E5000E6F95E4903A829F028FA0A22617F68465C
:101E600029F083FA694603A829F019FB014610A856
:101E700028F0B4FF684629F0D2F903A829F0CFF979
:101E8000534903A829F011FA0A22A17F684629F0D4
:101E90006CFA694603A829F002FB014610A828F055
:101EA0009DFF684629F0BBF903A829F0B8F9494914
:101EB00003A829F0FAF90A22E17F684629F055FAC9
:101EC000694603A829F0EBFA014610A828F086FF1E
:101ED000684629F0A4F903A829F0A1F93E4903A80E
:101EE00029F0E3F90A2294F82010684629F03DFA17
:101EF000694603A829F0D3FA014610A828F06EFF1E
:101F0000684629F08CF903A829F089F9334903A818
:101F100029F0CBF90A2294F82110684629F025FA15
:101F2000694603A829F0BBFA014610A828F056FF1D
:101F3000684629F074F903A829F071F9284903A823
:101F400029F0B3F90A2294F82210684629F00DFA14
:101F5000694603A829F0A3FA014610A828F03EFF1D
:101F6000684629F05CF903A829F059F91D4903A82E
:101F700029F09BF90A2294F82310684629F0F5F914
:101F8000694603A829F08BFA014610A828F026FF1D
:101F9000684629F044F903A829F041F924E000BF7C
:101FA0000801001000FA050010FA05001FFA0500EC
:101FB00034FA050047FA05005AFA050066FA0500EA
:101FC00071FA05007CFA050092FA05009BFA0500FB
:101FD000A4FA0500ADFA0500B8FA0500C5FA050037
:101FE000D1FA0500DCFA0500CF4903A829F05DF914
:101FF0000A2294F82410684629F0B7F9694603A824
:1020000029F04DFA014610A828F0E8FE684629F0AC
:1020100006F903A829F003F9C44903A829F045F9F2
:102020000A2294F82510684629F09FF9694603A80A
:1020300029F035FA014610A828F0D0FE684629F0AC
:10204000EEF803A829F0EBF8B94903A829F02DF917
:102050000A2294F82610684629F087F9694603A8F1
:1020600029F01DFA014610A828F0B8FE684629F0AC
:10207000D6F803A829F0D3F8AE4903A829F015F93A
:102080000A22A16A684629F070F9694603A829F076
:1020900006FA014610A828F0A1FE684629F0BFF80C
:1020A00003A829F0BCF8A44903A829F0FEF80A22E5
:1020B00094F82C10684629F058F9694603A829F0CD
:1020C000EEF9014610A828F089FE684629F0A7F825
:1020D00003A829F0A4F8994903A829F0E6F80A22F0
:1020E000216B684629F041F9694603A829F0D7F920
:1020F000014610A828F072FE684629F090F803A85F
:1021000029F08DF88E4903A829F0CFF80A22616BD7
:10211000684629F02AF9694603A829F0C0F9014662
:1021200010A828F05BFE684629F079F803A829F08A
:1021300076F8844903A829F0B8F80A2294F83810F0
:10214000684629F012F9694603A829F0A8F9014662
:1021500010A828F043FE684629F061F803A829F08A
:102160005EF8794903A829F0A0F80A2294F83910FA
:10217000684629F0FAF8694603A829F090F9014663
:1021800010A828F02BFE684629F049F803A829F08A
:1021900046F86E4903A829F088F80A2294F83A1004
:1021A000684629F0E2F8694603A829F078F9014663
:1021B00010A828F013FE684629F031F803A829F08A
:1021C0002EF8634903A829F070F80A2294F83B100E
:1021D000684629F0CAF8694603A829F060F9014663
:1021E00010A828F0FBFD684629F019F803A829F08B
:1021F00016F8584903A829F058F80A2294F83C1018
:10220000684629F0B2F8694603A829F048F9014662
:1022100010A828F0E3FD684629F001F803A828F08B
:10222000FEFF4D4903A829F040F80A2294F83D101A
:10223000684629F09AF8694603A829F030F9014662
:1022400010A828F0CBFD684628F0E9FF03A828F085
:10225000E6FF424910A828F0A7FD206CFEF7A2F97E
:1022600041EC100B022110A828F004FF3C4903A800
:1022700029F01BF80A2294F84410684629F075F8F2
:10228000694603A829F00BF9014610A828F0A6FD1D
:10229000684628F0C4FF03A828F0C1FF314903A80D
:1022A00029F003F80A2294F84510684629F05DF8F1
:1022B000694603A829F0F3F8014610A828F08EFD1E
:1022C000684628F0ACFF03A828F0A9FF264903A818
:1022D00028F0EBFF0A22A16C684629F058F86946FD
:1022E00003A829F0DCF8014610A828F077FD68461D
:1022F00028F095FF03A828F092FF1C4903A828F0B6
:10230000D4FF0A22E16C684629F02FF8694603A839
:1023100029F0C5F8014610A828F060FD684628F0AD
:102320007EFF03A824E000BFE8FA0500F0FA0500EC
:10233000FAFA050009FB050014FB050021FB050066
:1023400039FB05004CFB05005CFB050064FB050048
:102350006CFB050074FB05007CFB05008FFB050092
:102360009FFB0500B3FB0500D2FB0500E4FB050065
:1023700028F055FFCE4903A828F097FF0A2294F8C9
:102380005010684628F0F1FF694603A829F087F845
:10239000014610A828F022FD684628F040FF03A857
:1023A00028F03DFFC34903A828F07FFF0A2294F8D4
:1023B0005110684628F0D9FF694603A829F06FF844
:1023C000014610A828F00AFD684628F028FF03A857
:1023D00028F025FFB84903A828F067FF0A2294F8DF
:1023E0005210684628F0C1FF694603A829F057F843
:1023F000014610A828F0F2FC684628F010FF03A858
:1024000028F00DFFAD4903A828F04FFF0A22616DA7
:10241000684628F0BCFF694603A829F040F8014649
:1024200010A828F0DBFC684628F0F9FE03A828F085
:10243000F6FEA34910A828F0B7FCA06DFEF7B2F88D
:1024400041EC100B022110A828F014FE9D4903A8AE
:1024500028F02BFF0A2294F85C10684628F085FFCC
:10246000694603A829F01BF8014610A828F0B6FC1D
:10247000684628F0D4FE03A828F0D1FE924903A8AC
:1024800028F013FF0A22216E684628F080FF694673
:1024900003A829F004F8014610A828F09FFC68461C
:1024A00028F0BDFE03A828F0BAFE884903A828F04A
:1024B000FCFE0A2294F86410684628F056FF69462C
:1024C00003A828F0ECFF014610A828F087FC684616
:1024D00028F0A5FE03A828F0A2FE7D4903A828F055
:1024E000E4FE0A2294F86510684628F02DFF69463C
:1024F00003A828F0D4FF014610A828F06FFC684616
:1025000028F08DFE03A828F08AFE724903A828F05F
:10251000CCFE0A2294F86610684628F026FF694629
:1025200003A828F0BCFF014610A828F057FC684615
:1025300028F075FE03A828F072FE674910A828F05D
:1025400033FCA06EFEF72EF841EC100B022110A810
:1025500028F090FD614903A828F0A7FE0A2294F80C
:102560006C10684628F001FF694603A828F097FF21
:10257000014610A828F032FC684628F050FE03A857
:1025800028F04DFE564903A828F08FFE0A2294F841
:102590006D10684628F0E9FE694603A828F07FFF21
:1025A000014610A828F01AFC684628F038FE03A857
:1025B00028F035FE4B4903A828F077FE0A2294F84C
:1025C0006E10684628F0D1FE694603A828F067FF20
:1025D000014610A828F002FC684628F020FE03A857
:1025E00028F01DFE404903A828F05FFE0A2294F857
:1025F0006F10684628F0B9FE694603A828F04FFF1F
:10260000014610A828F0EAFB684628F008FE03A857
:1026100028F005FE354903A828F047FE0A2294F861
:102620007010684628F0A1FE694603A828F037FF1D
:10263000014610A828F0D2FB684628F0F0FD03A858
:1026400028F0EDFD2A4903A828F02FFE0A22616F29
:10265000684628F08AFE694603A828F020FF014654
:1026600010A828F0BBFB684628F0D9FD03A828F085
:10267000D6FD204903A828F018FE0A22A16F68465B
:1026800028F073FE694603A828F009FF014610A848
:1026900028F0A4FB684628F0C2FD03A828F0BFFD7F
:1026A000154903A828F001FE0A22E16F684625E0DB
:1026B000FCFB050013FC05002CFC050034FC0500A8
:1026C0004AFC05005FFC050078FC050089FC05005C
:1026D00097FC0500A9FC0500C4FC0500D9FC050019
:1026E000F7FC05000CFD050020FD05002CFD050094
:1026F00039FD050044FD050052FD050028F035FEBA
:10270000694603A828F0CBFE014610A828F066FB16
:10271000684628F084FD03A828F081FDD24903A86B
:1027200028F0C3FD0A22D4F88010684628F01DFE68
:10273000694603A828F0B3FE014610A828F04EFB16
:10274000684628F06CFD03A828F069FDC74903A876
:1027500028F0ABFD0A2294F88410684628F005FEA4
:10276000694603A828F09BFE014610A828F036FB16
:10277000684628F054FD03A828F051FDBC4903A881
:1027800028F093FD0A2294F88510684628F0EDFDA4
:10279000694603A828F083FE014610A828F01EFB16
:1027A000684628F03CFD03A828F039FDB14903A88C
:1027B00028F07BFD0A2294F88610684628F0D5FDA3
:1027C000694603A828F06BFE014610A828F006FB16
:1027D000684628F024FD03A828F021FDA64903A897
:1027E00028F063FD0A2294F88710684628F0ACFDB3
:1027F000694603A828F053FE014610A828F0EEFA17
:10280000684628F00CFD03A828F009FD9B4903A8A1
:1028100028F04BFD0A2294F88810684628F0A5FDA0
:10282000694603A828F03BFE014610A828F0D6FA16
:10283000684628F0F4FC03A828F0F1FC904903A8AE
:1028400028F033FD0A2294F88910684628F08DFD9F
:10285000694603A828F023FE014610A828F0BEFA16
:10286000684628F0DCFC03A828F0D9FC854903A8B9
:1028700028F01BFD0A2294F88A10684628F075FD9E
:10288000694603A828F00BFE014610A828F0A6FA16
:10289000684628F0C4FC03A828F0C1FC7A4903A8C4
:1028A00028F003FD0A22D4F88C10684628F05DFD5C
:1028B000694603A828F0F3FD014610A828F08EFA17
:1028C000684628F0ACFC03A828F0A9FC6F4903A8CF
:1028D00028F0EBFC0A22D4F89010684628F045FD59
:1028E000694603A828F0DBFD014610A828F076FA17
:1028F000684628F094FC03A828F091FC644903A8DA
:1029000028F0D3FC0A22D4F89410684628F02DFD54
:10291000694603A828F0C3FD014610A828F05EFA16
:10292000684628F07CFC03A828F079FC594903A8E4
:1029300028F0BBFC0A2294F89810684628F015FD90
:10294000694603A828F0ABFD014610A828F046FA16
:10295000684628F064FC03A828F061FC4E4903A8EF
:1029600028F0A3FC0A2294F89910684628F0FDFC90
:10297000694603A828F093FD014610A828F02EFA16
:10298000684628F04CFC03A828F049FC434903A8FA
:1029900028F08BFC0A2294F89A10684628F0E5FC8F
:1029A000694603A828F07BFD014610A828F016FA16
:1029B000684628F034FC03A828F031FC384903A805
:1029C00028F073FC0A2294F89B10684628F0CDFC8E
:1029D000694603A828F063FD014610A828F0FEF917
:1029E000684628F01CFC03A828F019FC2D4903A810
:1029F00028F05BFC0A2294F89C10684628F0B5FC8D
:102A0000694603A828F04BFD014610A828F0E6F916
:102A1000684628F004FC03A828F001FC224903A81A
:102A200028F043FC0A2294F89D10684628F09DFC8B
:102A3000694603A828F033FD014610A828F0CEF916
:102A4000684628F0ECFB03A828F0E9FB174903A827
:102A500028F02BFC0A2294F89E10684628F085FC8A
:102A6000694603A824E000BF5EFD05006DFD05007A
:102A70007EFD050096FD0500A7FD0500B7FD0500DC
:102A8000D4FD0500ECFD050006FE050022FE050054
:102A900037FE05004BFE050063FE05006EFE0500D7
:102AA0007EFE05008EFE05009EFE0500ADFE0500C3
:102AB00028F0F5FC014610A828F090F9684628F0A7
:102AC000AEFB03A828F0ABFB524903A828F0EDFBAE
:102AD0000A22D4F8A010684628F059FC694603A8D9
:102AE00028F0DDFC014610A828F078F9684628F0A7
:102AF00096FB03A828F093FB474903A828F0D5FBD1
:102B00000A2294F8A410684628F02FFC694603A80E
:102B100028F0C5FC014610A828F060F9684628F0A6
:102B20007EFB03A828F07BFB3C4903A828F0BDFBF3
:102B30000A2294F8A510684628F017FC694603A8F5
:102B400028F0ADFC014610A828F048F9684628F0A6
:102B500066FB03A828F063FB314903A828F0A5FB16
:102B60000A2294F8A610684628F0FFFB694603A8DD
:102B700028F095FC014610A828F030F9684628F0A6
:102B80004EFB03A828F04BFB264903A828F08DFB39
:102B90000A2294F8A710684628F0E7FB694603A8C4
:102BA00028F07DFC014610A828F018F9684628F0A6
:102BB00036FB03A828F033FB10A8FEF7A1FF14A8EA
:102BC00017F08FFFFFF745B8C1460A2200233046B1
:102BD0003946FEF7E5F9303209F8012B00230A22C5
:102BE00030463946FEF7DCF9002F08BF0A2E05F102
:102BF00001050BD20BAB0022013D18F8051019702E
:102C000003F8012F002DF7D1FFF79AB806460F46BB
:102C1000DBE700BFBDFE0500D5FE0500ECFE0500AC
:102C200003FF05001BFF05002DE9F04172497348C1
:102C3000B2B0FEF7ABFC18B16F497048FEF7C5FCA7
:102C400000234FF47A72CDE91F32CDE9303340F2E0
:102C500009226B4B68491E9322A8FEF741FD40B93B
:102C60006848FEF7CFFF1EA8FEF744FC32B0BDE86F
:102C7000F081654B654E1C68654FDFF8AC81002C18
:102C800002F04482A17823780291E17801911E2B11
:102C9000617898BF57F82320009188BF324641469B
:102CA0000BA83BF01DF923781C2B02F21D82DFE8F4
:102CB00013F0A1001D00BD0087011303D103F90328
:102CC000F9034B04BF041A057105E005B106570767
:102CD00094079407C907E908EF09610BD40B550C59
:102CE000230DB10D610E800FBF0F8F100BA905A82A
:102CF000E56828F0DAFA05A908A828F00AFB454992
:102D000008A828F0D8FB297828F0F3FB01461EA874
:102D100028F064F808A828F082FA05A828F07FFABD
:102D20000BA905A828F0C1FA05A908A828F0F1FA0E
:102D3000394908A828F0BFFB01461EA828F02FF843
:102D400008A828F06CFA05A828F069FA6868FDF769
:102D500029FC41EC100B02211EA828F08BF90BA9CD
:102D600005A828F0A2FA05A908A828F0D2FA2B494C
:102D700008A828F0A0FBA96828F0C5FB01461EA8FA
:102D800028F02CF808A828F04AFA05A828F047FAF5
:102D90000BA905A828F089FA05A908A828F0B9FA0E
:102DA0001F4908A828F087FBE96828F0A2FB014624
:102DB0001EA828F013F808A828F031FA05A828F072
:102DC0002EFA0BA905A828F070FA05A908A828F082
:102DD000A0FA144908A828F06EFB296928F089FB9D
:102DE00001461EA827F0FAFF08A828F018FA05A83F
:102DF00028F015FA246942E7E2F20500581A00109B
:102E0000E8990500F9F2050018140010D3F2050046
:102E1000349A05002FF3050034F3050047F305004D
:102E200053F3050062F305001FF305000BA905A885
:102E3000E56828F03AFA05A908A828F06AFA58497E
:102E400008A828F038FB297828F053FB01461EA873
:102E500027F0C4FF08A828F0E2F905A828F0DFF958
:102E60000BA905A828F021FA05A908A828F051FA0D
:102E70004C4908A828F01FFB697828F03AFB014666
:102E80001EA827F0ABFF08A828F0C9F905A828F06C
:102E9000C6F90BA905A828F008FA05A908A828F082
:102EA00038FA414908A828F006FBA97828F021FB48
:102EB00001461EA827F092FF08A828F0B0F905A83F
:102EC00028F0ADF90BA905A828F0EFF905A908A885
:102ED00028F01FFA354908A828F0EDFAE97828F01B
:102EE00008FB01461EA827F079FF08A828F097F9EB
:102EF00005A828F094F90BA905A828F0D6F905A98A
:102F000008A828F006FA2A4908A828F0D4FA29794E
:102F100028F0E5FA01461EA827F060FF08A828F06F
:102F20007EF905A828F07BF90BA905A828F0BDF9C2
:102F300005A908A828F0EDF91E4908A828F0BBFA51
:102F4000A96828F0D6FA01461EA827F047FF08A86E
:102F500028F065F905A828F062F90BA905A828F062
:102F6000A4F905A908A828F0D4F9134908A828F05D
:102F7000A2FAE96828F0BDFA01461EA827F02EFF44
:102F800008A828F04CF905A828F049F90BA905A8CC
:102F900028F08BF905A908A828F0BBF9074919E71B
:102FA0002FF3050071F305007EF305008EF3050095
:102FB0009DF30500ABF30500C3F30500CBF305005B
:102FC0000BA905A8E56828F070F905A908A828F05C
:102FD000A0F9B24908A828F06EFA297828F089FAF1
:102FE00001461EA827F0FAFE08A828F018F905A83F
:102FF00028F015F90BA905A828F057F905A908A884
:1030000028F087F9A64908A828F055FA697828F029
:1030100070FA01461EA827F0E1FE08A828F0FFF884
:1030200005A828F0FCF80BA905A828F03EF905A989
:1030300008A828F06EF99B4908A828F03CFAA9785E
:1030400028F057FA01461EA827F0C8FE08A828F065
:10305000E6F805A828F0E3F80BA905A828F025F95B
:1030600005A908A828F055F98F4908A828F023FADF
:10307000E97828F03EFA01461EA827F0AFFE08A81E
:1030800028F0CDF805A828F0CAF80BA905A828F063
:103090000CF905A908A828F03CF9844908A828F0EB
:1030A0000AFA297928F025FA01461EA827F096FE8B
:1030B00008A828F0B4F805A828F0B1F80BA905A8CD
:1030C00028F0F3F805A908A828F023F9784908A8FA
:1030D00028F0F1F9697928F00CFA01461EA827F0CA
:1030E0007DFE08A828F09BF805A828F098F80BA901
:1030F00005A828F0DAF805A908A828F00AF96D490A
:1031000008A828F0D8F9A97928F0F3F901461EA8F3
:1031100027F064FE08A828F082F805A828F07FF8B8
:103120000BA905A828F0C1F805A908A828F0F1F80E
:10313000614908A828F0BFF9E97928F0DAF90146D1
:103140001EA827F04BFE08A828F069F805A828F06B
:1031500066F80BA905A828F0A8F805A908A828F082
:10316000D8F8564908A828F0A6F9297A28F0C1F914
:1031700001461EA827F032FE08A828F050F805A83E
:1031800028F04DF80BA905A828F08FF805A908A884
:1031900028F0BFF84A4908A828F08DF9697A28F084
:1031A000A8F901461EA827F019FE08A828F037F84C
:1031B00005A828F034F80BA905A828F076F805A989
:1031C00008A828F0A6F83F4908A828F074F9A97AB9
:1031D00028F08FF901461EA827F000FE08A828F065
:1031E0001EF805A828F01BF80BA905A828F05DF823
:1031F00005A908A828F08DF8334908A828F05BF93C
:10320000E97A28F076F901461EA827F0E7FD08A81C
:1032100028F005F805A828F002F80BA905A828F061
:1032200044F805A908A828F074F8284908A828F047
:1032300042F9297B28F05DF901461EA827F0CEFD52
:1032400008A827F0ECFF05A827F0E9FF0BA905A8BF
:1032500028F02BF805A908A828F05BF81C4908A855
:1032600028F029F9296928F058F901461EA827F005
:10327000B5FD08A827F0D3FF05A827F0D0FF0BA9BC
:1032800005A828F012F805A908A828F042F8114965
:1032900008A828F010F9297EA0E500BF2FF305004B
:1032A00092FA05009BFA0500D6F30500E3F305004A
:1032B000F0F3050000F4050008F4050014F405001F
:1032C00028F4050038F405004CF4050055F4050019
:1032D0005EF4050068F405000BA905A8E56827F071
:1032E000E4FF05A908A828F014F88D4908A828F0DB
:1032F000E2F8297828F0FDF801461EA827F06EFDB7
:1033000008A827F08CFF05A827F089FF0BA905A8BE
:1033100027F0CBFF05A908A827F0FBFF814908A8E3
:1033200028F0C9F8697828F0E4F801461EA827F0CB
:1033300055FD08A827F073FF05A827F070FF0BA91B
:1033400005A827F0B2FF05A908A827F0E2FF7649F3
:1033500008A828F0B0F8A97828F0CBF801461EA8F4
:1033600027F03CFD08A827F05AFF05A827F057FFD3
:103370000BA905A827F099FF05A908A827F0C9FF00
:103380006A4908A828F097F8696828F0B2F8014659
:103390001EA827F023FD08A827F041FF05A827F065
:1033A0003EFF0BA905A827F080FF05A908A827F074
:1033B000B0FF5F4908A828F07EF8A96828F099F8BE
:1033C00001461EA827F00AFD08A827F028FF05A837
:1033D00027F025FF0BA905A827F067FF05A908A876
:1033E00027F097FF534908A828F065F8E96828F006
:1033F00080F801461EA827F0F1FC08A827F00FFF6F
:1034000005A827F00CFF0BA905A827F04EFF05A97A
:1034100008A827F07EFF484908A828F04CF8296939
:1034200028F067F801461EA827F0D8FC08A827F066
:10343000F6FE05A827F0F3FE0BA905A827F035FF37
:1034400005A908A827F065FF3C4908A828F033F82B
:103450006969C3E40BA905A8E56827F026FF05A95B
:1034600008A827F056FF2E4908A828F024F8297844
:1034700028F03FF801461EA827F0B0FC08A827F066
:10348000CEFE05A827F0CBFE0BA905A827F00DFF5F
:1034900005A908A827F03DFF294908A828F00BF83E
:1034A00069789BE40BA905A8E56827F0FEFE05A94D
:1034B00008A827F02EFF1A4908A827F0FCFF297852
:1034C00028F017F801461EA827F088FC08A827F066
:1034D000A6FE05A827F0A3FE0BA905A827F0E5FE88
:1034E00005A908A827F015FF164908A827F0E3FF4B
:1034F000697827F0FEFF01461EA827F06FFC08A898
:1035000027F08DFE05A827F08AFE0BA905A827F055
:10351000CCFE05A908A827F0FCFE09491FE100BF61
:103520002FF3050074F4050082F4050093F4050000
:103530009FF40500ACF40500C6F40500DEF40500B8
:10354000EAF40500FAF405000BA905A8E56827F0E0
:10355000ACFE05A908A827F0DCFE844908A827F0DE
:10356000AAFF297827F0C5FF01461EA827F036FCE0
:1035700008A827F054FE05A827F051FE0BA905A8BE
:1035800027F093FE05A908A827F0C3FE784908A8EC
:1035900027F091FF697827F0ACFF01461EA827F0BD
:1035A0001DFC08A827F03BFE05A827F038FE0BA954
:1035B00005A827F07AFE05A908A827F0AAFE6D49FC
:1035C00008A827F078FFA97827F093FF01461EA8E6
:1035D00027F004FC08A827F022FE05A827F01FFE0C
:1035E0000BA905A827F061FE05A908A827F091FE00
:1035F000614908A827F05FFFE97827F07AFF0146C4
:103600001EA827F0EBFB08A827F009FE05A827F065
:1036100006FE0BA905A827F048FE05A908A827F073
:1036200078FE564908A827F046FF2979FFF7D6BB50
:103630000BA905A8E56827F038FE05A908A827F01A
:1036400068FE4A4908A827F036FF297827F051FF7D
:1036500001461EA827F0C2FB08A827F0E0FD05A838
:1036600027F0DDFD0BA905A827F01FFE05A908A876
:1036700027F04FFE424908A827F01DFF697827F080
:1036800038FF01461EA827F0A9FB08A827F0C7FDB0
:1036900005A827F0C4FD0BA905A827F006FE05A97B
:1036A00008A827F036FE374908A827F004FFA978B4
:1036B00027F01FFF01461EA827F090FB08A827F05F
:1036C000AEFD05A827F0ABFD0BA905A827F0EDFD81
:1036D00005A908A827F01DFE2B4908A827F0EBFE36
:1036E000E978FFF77BBB0BA905A8E56827F0DDFDAE
:1036F00005A908A827F00DFE1C4908A827F0DBFE45
:10370000297827F0F6FE01461EA827F067FB08A8D7
:1037100027F085FD05A827F082FD0BA905A827F055
:10372000C4FD05A908A827F0F4FD184908A827F04A
:10373000C2FE697827F0DDFE01461EA827F04EFB89
:1037400008A827F06CFD05A827F069FD0BA905A8BE
:1037500027F0ABFD05A908A827F0DBFD0C4908A858
:1037600027F0A9FEA978FFF739BB00BF2FF30500AA
:1037700007F50500FAF40500E3F30500EAF4050097
:1037800014F505001CF5050024F5050030F50500CD
:1037900039F505000BA905A8E56827F086FD05A900
:1037A00008A827F0B6FD904908A827F084FE2978DC
:1037B00027F09FFE01461EA827F010FB08A827F05F
:1037C0002EFD05A827F02BFD0BA905A827F06DFD00
:1037D00005A908A827F09DFD844908A827F06BFEDD
:1037E000697827F086FE01461EA827F0F7FA08A898
:1037F00027F015FD05A827F012FD0BA905A827F055
:1038000054FD05A908A827F084FD794908A827F0E8
:1038100052FEA97827F06DFE01461EA827F0DEFAB9
:1038200008A827F0FCFC05A827F0F9FC0BA905A8BF
:1038300027F03BFD05A908A827F06BFD6D4908A8F6
:1038400027F039FEE97827F054FE01461EA827F03C
:10385000C5FA08A827F0E3FC05A827F0E0FC0BA9AF
:1038600005A827F022FD05A908A827F052FD624906
:10387000D8E60BA905A8E56827F017FD05A908A853
:1038800027F047FD584908A827F015FE297827F0AA
:1038900030FE01461EA827F0A1FA08A827F0BFFCB9
:1038A00005A827F0BCFC0BA905A827F0FEFC05A97C
:1038B00008A827F02EFD4E4908A827F0FCFD6978DE
:1038C00027F017FE01461EA827F088FA08A827F05F
:1038D000A6FC05A827F0A3FC0BA905A827F0E5FC8A
:1038E00005A908A827F015FD444908A827F0E3FD1D
:1038F000A97827F0FEFD01461EA827F06FFA08A858
:1039000027F08DFC05A827F08AFC0BA905A827F055
:10391000CCFC05A908A827F0FCFC394908A827F029
:10392000CAFDE97827F0E5FD01461EA827F056FA02
:1039300008A827F074FC05A827F071FC0BA905A8BE
:1039400027F0B3FC05A908A827F0E3FC2D4908A837
:1039500027F0B1FD696827F0CCFD01461EA827F0CD
:103960003DFA08A827F05BFC05A827F058FC0BA936
:1039700005A827F09AFC05A908A827F0CAFC224947
:1039800008A827F098FDA96827F0B3FD01461EA8F6
:1039900027F024FA08A827F042FC05A827F03FFCEE
:1039A0000BA905A827F081FC05A908A827F0B1FC00
:1039B000164908A827F07FFDE96827F09AFD01461F
:1039C0001EA827F00BFA08A827F029FC05A827F065
:1039D00026FC0BA905A827F068FC05A908A827F074
:1039E00098FC0B49FFF7F6B92FF3050030F50500F9
:1039F00039F5050041F5050048F5050007F5050016
:103A0000EAF4050054F5050069F505007FF50500A9
:103A100090F505000BA905A8E56827F046FC05A967
:103A200008A827F076FC7F4908A827F044FD2978EC
:103A300027F05FFD01461EA827F0D0F908A827F05F
:103A4000EEFB05A827F0EBFB0BA905A827F02DFC42
:103A500005A908A827F05DFC734908A827F02BFDED
:103A6000697827F046FD01461EA827F0B7F908A897
:103A700027F0D5FB05A827F0D2FB0BA905A827F056
:103A800014FC05A908A827F044FC684908A827F0F9
:103A900012FDA97827F02DFD01461EA827F09EF9FA
:103AA00008A827F0BCFB05A827F0B9FB0BA905A8BF
:103AB00027F0FBFB05A908A827F02BFC5C4908A808
:103AC00027F0F9FCE97827F014FD01461EA827F03D
:103AD00085F908A827F0A3FB05A827F0A0FB0BA9F0
:103AE00005A827F0E2FB05A908A827F012FC514918
:103AF00008A827F0E0FC297927F0FBFC01461EA866
:103B000027F06CF908A827F08AFB05A827F087FBA7
:103B10000BA905A827F0C9FB05A908A827F0F9FB00
:103B2000454908A827F0C7FC697927F0E2FC01465F
:103B30001EA827F053F908A827F071FB05A827F065
:103B40006EFB0BA905A827F0B0FB05A908A827F074
:103B5000E0FB3A4908A827F0AEFCA979FFF73EB987
:103B60000BA905A8E56827F0A0FB05A908A827F080
:103B7000D0FB2C4908A827F09EFC297827F0B9FC37
:103B800001461EA827F02AF908A827F048FB05A837
:103B900027F045FB0BA905A827F087FB05A908A876
:103BA00027F0B7FB224908A827F085FC697827F0A1
:103BB000A0FC01461EA827F011F908A827F02FFB4A
:103BC00005A827F02CFB0BA905A827F06EFB05A97B
:103BD00008A827F09EFB1A49C1E50BA905A8E568CE
:103BE00027F063FB05A908A827F093FB0D4908A857
:103BF00027F061FC297827F07CFC01461EA827F0FD
:103C0000EDF808A827F00BFB05A827F008FB0BA987
:103C100005A827F04AFB05A908A827F07AFB024966
:103C200063E400BF2FF3050007F50500FAF4050073
:103C3000EAF40500A3F50500B1F50500C5F505009A
:103C4000D9F505000BA905A8E56827F02EFB05A905
:103C500008A827F05EFB804908A827F02CFC2978EB
:103C600027F047FC01461EA827F0B8F808A827F05F
:103C7000D6FA05A827F0D3FA0BA905A827F015FB5B
:103C800005A908A827F045FB744908A827F013FCEC
:103C9000697827F02EFC01461EA827F09FF808A897
:103CA00027F0BDFA05A827F0BAFA0BA905A827F056
:103CB000FCFA05A908A827F02CFB694908A827F0F9
:103CC000FAFBA97827F015FC01461EA827F086F814
:103CD00008A827F0A4FA05A827F0A1FA0BA905A8BF
:103CE00027F0E3FA05A908A827F013FB5D4908A807
:103CF00027F0E1FBE97827F0FCFB01461EA827F03E
:103D00006DF808A827F08BFA05A827F088FA0BA908
:103D100005A827F0CAFA05A908A827F0FAFA524917
:103D200008A827F0C8FB297927F0E3FB01461EA865
:103D300027F054F808A827F072FA05A827F06FFAC0
:103D40000BA905A827F0B1FA05A908A827F0E1FA00
:103D5000464908A827F0AFFB697927F0CAFB01465E
:103D60001EA827F03BF808A827F059FA05A827F065
:103D700056FA0BA905A827F098FA05A908A827F074
:103D8000C8FA3B4908A827F096FBA97927F0B1FBB0
:103D900001461EA827F022F808A827F040FA05A837
:103DA00027F03DFA0BA905A827F07FFA05A908A876
:103DB00027F0AFFA2F4908A827F07DFBE97927F013
:103DC00098FB01461EA827F009F808A827F027FA53
:103DD00005A827F024FA0BA905A827F066FA05A97B
:103DE00008A827F096FA244908A827F064FB297A46
:103DF00027F07FFB01461EA826F0F0FF08A827F059
:103E00000EFA05A827F00BFA0BA905A827F04DFA22
:103E100005A908A827F07DFA184908A827F04BFB48
:103E2000697A27F066FB01461EA826F0D7FF08A88E
:103E300027F0F5F905A827F0F2F90BA905A827F056
:103E400034FA05A908A827F064FA0D4908A827F054
:103E500032FBA97AFEF7C2BF2FF30500F0F505008B
:103E6000FFF505000EF6050026F6050035F60500FF
:103E700046F6050058F6050068F6050088F60500C8
:103E8000A9F605000BA905A8E56827F00EFA05A913
:103E900008A827F03EFA744908A827F00CFB2978F7
:103EA00027F027FB01461EA826F098FF08A827F058
:103EB000B6F905A827F0B3F90BA905A827F0F5F97D
:103EC00005A908A827F025FA684908A827F0F3FAF9
:103ED000696827F00EFB01461EA826F07FFF08A8A0
:103EE00027F09DF905A827F09AF90BA905A827F056
:103EF000DCF905A908A827F00CFA5D4908A827F005
:103F0000DAFAA96827F0F5FA01461EA826F066FF3E
:103F100008A827F084F905A827F081F90BA905A8BE
:103F200027F0C3F905A908A827F0F3F9514908A813
:103F300027F0C1FA297B27F0DCFA01461EA826F0FB
:103F40004DFF08A827F06BF905A827F068F90BA921
:103F500005A827F0AAF905A908A827F0DAF9464923
:103F600008A827F0A8FA697B27F0C3FA01461EA823
:103F700026F034FF08A827F052F905A827F04FF9DA
:103F80000BA905A827F091F905A908A827F0C1F900
:103F90003A4908A827F08FFAA97B27F0AAFA014628
:103FA0001EA826F01BFF08A827F039F905A827F05E
:103FB00036F90BA905A827F078F905A908A827F074
:103FC000A8F92F4908A827F076FAE97B27F091FA9B
:103FD00001461EA826F002FF08A827F020F905A830
:103FE00027F01DF90BA905A827F05FF905A908A876
:103FF00027F08FF9234908A827F05DFA297C27F0DC
:1040000078FA01461EA826F0E9FE08A827F007F96D
:1040100005A827F004F90BA905A827F046F905A97A
:1040200008A827F076F9184908A827F044FA697C0F
:1040300027F05FFA01461EA826F0D0FE08A827F058
:10404000EEF805A827F0EBF80BA905A827F02DF945
:1040500005A908A827F05DF90C4908A827F02BFA54
:10406000A97CFEF7BBBE00BF2FF30500C8F6050014
:10407000D4F60500E0F60500E8F60500EFF60500C9
:10408000F7F6050000F7050009F7050011F7050030
:104090000BA905A8E56827F008F905A908A827F0E5
:1040A00038F9A64908A827F006FA297827F021FA56
:1040B00001461EA826F092FE08A827F0B0F805A831
:1040C00027F0ADF80BA905A827F0EFF805A908A877
:1040D00027F01FF99A4908A827F0EDF9697827F029
:1040E00008FA01461EA826F079FE08A827F097F8DE
:1040F00005A827F094F80BA905A827F0D6F805A97C
:1041000008A827F006F98F4908A827F0D4F9A9785C
:1041100027F0EFF901461EA826F060FE08A827F058
:104120007EF805A827F07BF80BA905A827F0BDF8B5
:1041300005A908A827F0EDF8834908A827F0BBF9DE
:10414000E97827F0D6F901461EA826F047FE08A810
:1041500027F065F805A827F062F80BA905A827F055
:10416000A4F805A908A827F0D4F8784908A827F0EA
:10417000A2F9297927F0BDF901461EA826F02EFEE6
:1041800008A827F04CF805A827F049F80BA905A8BE
:1041900027F08BF805A908A827F0BBF86C4908A8F8
:1041A00027F089F9697927F0A4F901461EA826F0BD
:1041B00015FE08A827F033F805A827F030F80BA95A
:1041C00005A827F072F805A908A827F0A2F8614908
:1041D00008A827F070F9A97927F08BF901461EA8E5
:1041E00026F0FCFD08A827F01AF805A827F017F814
:1041F0000BA905A827F059F805A908A827F089F800
:10420000554908A827F057F9E97927F072F90146CE
:104210001EA826F0E3FD08A827F001F805A826F05F
:10422000FEFF0BA905A827F040F805A908A827F06C
:1042300070F84A4908A827F03EF9297A27F059F979
:1042400001461EA826F0CAFD08A826F0E8FF05A82A
:1042500026F0E5FF0BA905A827F027F805A908A86F
:1042600027F057F83E4908A827F025F9697A27F082
:1042700040F901461EA826F0B1FD08A826F0CFFFA0
:1042800005A826F0CCFF0BA905A827F00EF805A974
:1042900008A827F03EF8334908A827F00CF9A97AB6
:1042A00027F027F901461EA826F098FD08A826F059
:1042B000B6FF05A826F0B3FF0BA905A826F0F5FF69
:1042C00005A908A827F025F8274908A827F0F3F83A
:1042D000E97A27F00EF901461EA826F07FFD08A80E
:1042E00026F09DFF05A826F09AFF0BA905A826F049
:1042F000DCFF05A908A827F00CF81C4908A827F03E
:10430000DAF8297B27F0F5F801461EA826F066FDAD
:1043100008A826F084FF05A826F081FF0BA905A8B0
:1043200026F0C3FF05A908A826F0F3FF104908A846
:1043300027F0C1F8697BFEF751BD00BF2FF30500E0
:1043400019F7050021F705002AF7050033F70500E6
:104350003CF7050044F705004DF7050056F705004A
:104360005FF7050068F7050079F7050086F7050097
:1043700093F705000BA905A8E56826F096FF05A9A7
:1043800008A826F0C6FF6D4908A827F094F82978F8
:1043900027F0AFF801461EA826F020FD08A826F059
:1043A0003EFF05A826F03BFF0BA905A826F07DFFE0
:1043B00005A908A826F0ADFF614908A827F07BF8F9
:1043C000697827F096F801461EA826F007FD08A890
:1043D00026F025FF05A826F022FF0BA905A826F048
:1043E00064FF05A908A826F094FF564908A827F0FD
:1043F00062F801461EA826F0D2FC08A826F00FFF9E
:1044000005A826F00CFF6868FCF7CCF841EC100B0F
:1044100002211EA826F02EFE0BA905A826F045FFB6
:1044200005A908A826F075FF474908A827F043F812
:1044300001461EA826F0B3FC08A826F0F0FE05A849
:1044400026F0EDFEA868FCF7ADF841EC100B022158
:104450001EA826F00FFEFEF7CDBC0BA905A8E56847
:1044600026F023FF05A908A826F053FF334908A822
:1044700027F021F8297827F03CF801461EA826F0FD
:10448000ADFC08A826F0CBFE05A826F0C8FE0BA9B7
:1044900005A826F00AFF05A908A826F03AFF2B492F
:1044A00008A827F008F8697827F023F801461EA825
:1044B00026F094FC08A826F0B2FE05A826F0AFFE70
:1044C0000BA905A826F0F1FE05A908A826F021FFF2
:1044D0001F4908A826F0EFFFA97827F00AF801463F
:1044E0001EA826F07BFC08A826F099FE05A826F059
:1044F00096FE0BA905A826F0D8FE05A908A826F067
:1045000008FF144908A826F0D6FFE97826F0F1FF45
:1045100001461EA826F062FC08A826F080FE05A829
:1045200026F07DFE0BA905A826F0BFFE05A908A868
:1045300026F0EFFE0849FFF775B800BF2FF305001E
:10454000A1F70500A9F70500727C0600FAF4050042
:10455000EAF40500ADF70500B7F705000BA905A8BB
:10456000E56826F0A2FE05A908A826F0D2FE9D491E
:1045700008A826F0A0FF297826F0BBFF01461EA858
:1045800026F02CFC08A826F04AFE05A826F047FED7
:104590000BA905A826F089FE05A908A826F0B9FEF2
:1045A000914908A826F087FF697826F0A2FF014606
:1045B0001EA826F013FC08A826F031FE05A826F058
:1045C0002EFE0BA905A826F070FE05A908A826F066
:1045D000A0FE864908A826F06EFFA97826F089FF7C
:1045E00001461EA826F0FAFB08A826F018FE05A82A
:1045F00026F015FE0BA905A826F057FE05A908A868
:1046000026F087FE7A4908A826F055FFE97826F0BB
:1046100070FF01461EA826F0E1FB08A826F0FFFD6A
:1046200005A826F0FCFD0BA905A826F03EFE05A96D
:1046300008A826F06EFE6F4908A826F03CFF2979ED
:1046400026F057FF01461EA826F0C8FB08A826F052
:10465000E6FD05A826F0E3FD0BA905A826F025FE3A
:1046600005A908A826F055FE634908A826F023FFEF
:10467000697926F034FF01461EA826F0AFFB08A892
:1046800026F0CDFD05A826F0CAFD0BA905A826F049
:104690000CFE05A908A826F03CFE584908A826F0FB
:1046A0000AFF01461EA826F07AFB08A826F0B7FDEF
:1046B00005A826F0B4FDA868FBF774FF41EC100BC9
:1046C00002211EA826F0D6FC0BA905A826F0EDFDB8
:1046D00005A908A826F01DFE494908A826F0EBFE0A
:1046E00001461EA826F05BFB08A826F098FD05A849
:1046F00026F095FDE868A6E60BA905A8E56826F072
:10470000D4FD05A908A826F004FE364908A826F01D
:10471000D2FE297826F0EDFE01461EA826F05EFBAB
:1047200008A826F07CFD05A826F079FD0BA905A8B0
:1047300026F0BBFD05A908A826F0EBFD314908A825
:1047400026F0B9FE697826F0D4FE01461EA826F0B0
:1047500045FB08A826F063FD05A826F060FD0BA91F
:1047600005A826F0A2FD05A908A826F0D2FD264935
:1047700008A826F0A0FEA97826F0BBFE01461EA8D8
:1047800026F02CFB08A826F04AFD05A826F047FDD8
:104790000BA905A826F089FD05A908A826F0B9FDF2
:1047A0001A4908A826F087FEE97826F0A2FE0146FD
:1047B0001EA826F013FB08A826F031FD05A826F058
:1047C0002EFD0BA905A826F070FD05A908A826F066
:1047D000A0FD0F4908A826F06EFE697926F07FFE3D
:1047E000FEF7FEBA2FF30500FAF40500EAF405001F
:1047F000C2F70500E3F30500CCF70500D3F7050089
:10480000E1F70500EDF70500F9F7050005F80500EB
:1048100017F805000BA905A8E56826F046FD05A9CF
:1048200008A826F076FD4C4908A826F044FE297811
:1048300026F05FFE01461EA826F0D0FA08A826F052
:10484000EEFC05A826F0EBFC0BA905A826F02DFD33
:1048500005A908A826F05DFD404908A826F02BFE12
:10486000697826F046FE01461EA826F0B7FA08A889
:1048700026F0D5FC05A826F0D2FC0BA905A826F049
:1048800014FD05A908A826F044FD354908A826F01E
:1048900012FEA97826F02DFE01461EA826F09EFAEB
:1048A00008A826F0BCFC05A826F0B9FC0BA905A8B1
:1048B00026F0FBFC05A908A826F02BFD294908A82D
:1048C00026F0F9FDE97826F014FE01461EA826F030
:1048D00085FA08A826F0A3FC05A826F0A0FC0BA9E1
:1048E00005A826F0E2FC05A908A826F012FD1E493D
:1048F00008A826F0E0FD297926F0FBFD01461EA858
:1049000026F06CFA08A826F08AFC05A826F087FC99
:104910000BA905A826F0C9FC05A908A826F0F9FCF2
:10492000124908A826F0C7FD697926F0E2FD014684
:104930001EA826F053FA08A826F071FC05A826F058
:104940006EFC0BA905A826F0B0FC05A908A826F066
:10495000E0FC0749FFF7FEB82FF3050026F8050035
:1049600034F8050043F805004EF8050059F8050035
:104970006CF805000BA905A8E56826F096FC05A9CA
:1049800008A826F0C6FC9D4908A826F094FD2978C1
:1049900026F0AFFD01461EA826F020FA08A826F052
:1049A0003EFC05A826F03BFC0BA905A826F07DFCE3
:1049B00005A908A826F0ADFC914908A826F07BFDC2
:1049C000697826F096FD01461EA826F007FA08A889
:1049D00026F025FC05A826F022FC0BA905A826F048
:1049E00064FC05A908A826F094FC864908A826F0CE
:1049F00062FDA97826F07DFD01461EA826F0EEF99D
:104A000008A826F00CFC05A826F009FC0BA905A8AF
:104A100026F04BFC05A908A826F07BFC7A4908A8DB
:104A200026F049FDE97826F064FD01461EA826F02F
:104A3000D5F908A826F0F3FB05A826F0F0FB0BA992
:104A400005A826F032FC05A908A826F062FC6F49EB
:104A500008A826F030FD696826F04BFD01461EA827
:104A600026F0BCF908A826F0DAFB05A826F0D7FB4B
:104A70000BA905A826F019FC05A908A826F049FCF1
:104A8000634908A826F017FD696926F032FD014642
:104A90001EA826F0A3F908A826F0C1FB05A826F059
:104AA000BEFB0BA905A826F000FC05A908A826F066
:104AB00030FC584908A826F0FEFCA96826F019FD2C
:104AC00001461EA826F08AF908A826F0A8FB05A82A
:104AD00026F0A5FB0BA905A826F0E7FB05A908A869
:104AE00026F017FC4C4908A826F0E5FCA96926F039
:104AF00000FD01461EA826F071F908A826F08FFBDC
:104B000005A826F08CFB0BA905A826F0CEFB05A96D
:104B100008A826F0FEFB414908A826F0CCFC297B1A
:104B200026F0E7FC01461EA826F058F908A826F052
:104B300076FB05A826F073FB0BA905A826F0B5FBAC
:104B400005A908A826F0E5FB354908A826F0B3FC1E
:104B5000297F26F0CEFC01461EA826F03FF908A8C2
:104B600026F05DFB05A826F05AFB0BA905A826F048
:104B70009CFB05A908A826F0CCFB2A4908A826F02A
:104B80009AFC296A26F0B5FC01461EA826F026F9F3
:104B900008A826F044FB05A826F041FB0BA905A8B0
:104BA00026F083FB05A908A826F0B3FB1E49FEF7F3
:104BB00011B90BA905A8E56826F077FB05A908A897
:104BC00026F0A7FB0D4908A826F075FC297826F0E9
:104BD00090FC01461EA826F001F908A826F01FFB4C
:104BE00005A826F01CFB0BA905A826F05EFB05A96D
:104BF00008A826F08EFB0D49FEF777BC2FF30500C1
:104C000077F8050081F805008AF8050098F8050096
:104C1000A4F80500AFF80500BAF80500C4F80500CF
:104C2000D4F80500E3F80500EEF8050000F90500EA
:104C30000BA905A8E56826F038FB05A908A826F009
:104C400068FB5B4908A826F036FC297826F051FC61
:104C500001461EA826F0C2F808A826F0E0FA05A82A
:104C600026F0DDFA0BA905A826F01FFB05A908A868
:104C700026F04FFB4F4908A826F01DFC697826F066
:104C800038FC01461EA826F0A9F808A826F0C7FAA5
:104C900005A826F0C4FA0BA905A826F006FB05A96D
:104CA00008A826F036FB444908A826F004FCA97899
:104CB00026F01FFC01461EA826F090F808A826F052
:104CC000AEFA05A826F0ABFA0BA905A826F0EDFA76
:104CD00005A908A826F01DFB384908A826F0EBFB1B
:104CE000E97826F006FC01461EA826F077F808A809
:104CF00026F095FA05A826F092FA0BA905A826F049
:104D0000D4FA05A908A826F004FB2D4908A826F026
:104D1000D2FB297926F0EDFB01461EA826F05EF8AD
:104D200008A826F07CFA05A826F079FA0BA905A8B0
:104D300026F0BBFA05A908A826F0EBFA214908A835
:104D400026F0B9FB697926F0D4FB01461EA826F0AF
:104D500045F808A826F063FA05A826F060FA0BA922
:104D600005A826F0A2FA05A908A826F0D2FA164945
:104D700008A826F0A0FBA97926F0BBFB01461EA8D7
:104D800026F02CF808A826F04AFA05A826F047FADB
:104D90000BA905A826F089FA05A908A826F0B9FAF2
:104DA0000A4908A826F087FBE979FEF717B800BF83
:104DB0002FF3050077F805008AF8050008F90500CB
:104DC00011F905001BF9050025F905002FF905006B
:104DD0000BA905A8E56826F068FA05A908A826F039
:104DE00098FAB24908A826F066FB297826F081FBDC
:104DF00001461EA825F0F2FF08A826F010FA05A823
:104E000026F00DFA0BA905A826F04FFA05A908A867
:104E100026F07FFAA64908A826F04DFB697826F00F
:104E200068FB01461EA825F0D9FF08A826F0F7F96F
:104E300005A826F0F4F90BA905A826F036FA05A96D
:104E400008A826F066FA9B4908A826F034FBA97842
:104E500026F04FFB01461EA825F0C0FF08A826F04B
:104E6000DEF905A826F0DBF90BA905A826F01DFA46
:104E700005A908A826F04DFA8F4908A826F01BFBC3
:104E8000E97826F036FB01461EA825F0A7FF08A802
:104E900026F0C5F905A826F0C2F90BA905A826F049
:104EA00004FA05A908A826F034FA844908A826F0CF
:104EB00002FB297926F01DFB01461EA825F08EFF76
:104EC00008A826F0ACF905A826F0A9F90BA905A8B1
:104ED00026F0EBF905A908A826F01BFA784908A8DE
:104EE00026F0E9FA697926F004FB01461EA825F0B0
:104EF00075FF08A826F093F905A826F090F90BA9EC
:104F000005A826F0D2F905A908A826F002FA6D49ED
:104F100008A826F0D0FAA97926F0EBFA01461EA8D7
:104F200025F05CFF08A826F07AF905A826F077F9A5
:104F30000BA905A826F0B9F905A908A826F0E9F9F2
:104F4000614908A826F0B7FAE97926F0D2FA0146B5
:104F50001EA825F043FF08A826F061F905A826F051
:104F60005EF90BA905A826F0A0F905A908A826F066
:104F7000D0F9564908A826F09EFA297A26F0B9FAFF
:104F800001461EA825F02AFF08A826F048F905A822
:104F900026F045F90BA905A826F087F905A908A868
:104FA00026F0B7F94A4908A826F085FA697A26F06A
:104FB000A0FA01461EA825F011FF08A826F02FF937
:104FC00005A826F02CF90BA905A826F06EF905A96D
:104FD00008A826F09EF93F4908A826F06CFAA97A9D
:104FE00026F087FA01461EA825F0F8FE08A826F04C
:104FF00016F905A826F013F90BA905A826F055F90E
:1050000005A908A826F085F9334908A826F053FA1F
:10501000E97A26F06EFA01461EA825F0DFFE08A800
:1050200026F0FDF805A826F0FAF80BA905A826F049
:105030003CF905A908A826F06CF9284908A826F02B
:105040003AFA297B26F055FA01461EA825F0C6FE3D
:1050500008A826F0E4F805A826F0E1F80BA905A8B1
:1050600026F023F905A908A826F053F91C4908A839
:1050700026F021FA697B26F03CFA01461EA825F0AD
:10508000ADFE08A826F0CBF805A826F0C8F80BA9B5
:1050900005A826F00AF905A908A826F03AF9114949
:1050A00008A826F008FAA97BFDF798BE2FF30500A3
:1050B0003AF9050041F9050048F905004FF90500E6
:1050C00056F905005FF9050068F9050071F905005A
:1050D0007AF9050082F9050089F9050090F90500C3
:1050E00097F905009EF905000BAA0C490C4826F01B
:1050F00033FE0C4B93F88530002B3DF47BAE0BAAAE
:105100000649094826F028FEFDF774BE1EA8FCF7E4
:10511000F7FC22A815F0E5FCFDF7A5BDA6F90500F2
:10512000A82D001008010010202C00102DE9F04FD0
:105130007E4DADF2044D00238DF8003095F82430FB
:105140008046C3B12B7F2BB14FF48062784968460B
:1051500042F0ACFA6B7F2BB14FF480627549684620
:1051600042F0A4FA95F884302BB14FF48062724972
:10517000684642F09BFA95F839302BB14FF48062C3
:105180006E49684642F092FA95F83A302BB14FF4E6
:1051900080626B49684642F089FA95F83B302BB142
:1051A0004FF480626749684642F080FA95F83C30D7
:1051B0002BB14FF480626449684642F077FA95F863
:1051C00052302BB14FF480626049684642F06EFA6B
:1051D0005F4FFB783BB395F89930002B54D195F88D
:1051E00020302BB14FF480625A49684642F05EFA93
:1051F00095F821302BB14FF480625749684642F050
:1052000055FA95F822302BB14FF480625349684625
:1052100042F04CFA95F823302BB151494FF480629B
:10522000684642F043FA4F4BDFF860911C68DFF8A4
:1052300060A1DFF860B1002C00F091842379002B8D
:1052400057D022781C2A00F27A84DFE812F052004C
:1052500049005400A50009011E012B014001550120
:105260007A019701AC01D101230237024C024C02B2
:105270005B028002BD022A0337034403A703C40371
:10528000F90316042304320495F89A302BB14FF435
:1052900080623549684642F009FA95F89B302BB197
:1052A0004FF480623149684642F000FA95F89C302C
:1052B0002BB14FF480622E49684642F0F7F995F819
:1052C0009D302BB14FF480622A49684642F0EEF9D6
:1052D00095F89E30002BA6D04FF4806226499FE7B8
:1052E000E3681B782BB125494FF48062684642F091
:1052F000DDF924699FE7E6683378002BF9D07378ED
:105300002BB14FF480621E49684642F0CFF9B37862
:105310002BB14FF480621B49684642F0C7F9F3781D
:10532000002BE6D04FF480621749DFE70801001038
:10533000F3B80500FCB8050005B905000DB9050076
:1053400018B9050023B905002EB9050039B90500C3
:10535000091700103EB9050048B9050052B905000B
:105360005CB905001814001066B9050076B905008F
:105370008EB90500A1B90500B4B90500C7B905008B
:10538000D8B90500E5B9050003BA05008EBC0500D3
:10539000A82D0010202C0010E6683378002BA8D030
:1053A00073782BB14FF480629D49684642F07EF9D4
:1053B000B3782BB14FF480629A49684642F076F98F
:1053C000F3782BB14FF480629749684642F06EF94A
:1053D00033792BB14FF480629449684642F066F904
:1053E00073792BB14FF480629149684642F05EF9BF
:1053F000B3792BB14FF480628E49684642F056F97A
:10540000F3792BB14FF480628B49684642F04EF934
:10541000337A2BB14FF480628849684642F046F9EE
:10542000737A2BB14FF480628549684642F03EF9A9
:10543000B37A2BB14FF480628249684642F036F964
:10544000F37A2BB14FF480627F49684642F02EF91F
:10545000337B002B3FF44DAF4FF480627B4945E72F
:10546000E6683378002B3FF444AF73782BB14FF4E8
:1054700080627749684642F019F9B378002B3FF40F
:1054800038AF4FF48062734930E7E3681A78002A36
:105490003FF42FAF5B78002B3FF42BAF4FF48062CB
:1054A0006D4923E7E6683378002B3FF422AF737829
:1054B0002BB14FF480626949684642F0F7F8B3783F
:1054C000002B3FF416AF4FF4806265490EE7E668A3
:1054D0003378002B3FF40DAF73782BB14FF480621B
:1054E0005E49684642F0E2F8B378002B3FF401AF22
:1054F0004FF480625B49F9E6E6683378002B3FF4AD
:10550000F8AEB3782BB14FF480625749684642F049
:10551000CDF873782BB14FF480625449684642F05D
:10552000C5F8F3782BB14FF480625149684642F0D8
:10553000BDF83379002B3FF4DCAE4FF480624D4967
:10554000D4E6E6683378002B3FF4D3AE73782BB102
:105550004FF480624849684642F0A8F8B3782BB10E
:105560004FF480624549684642F0A0F8F378002B7A
:105570003FF4BFAE4FF480624149B7E6E668337846
:10558000002B3FF4B6AE73782BB14FF480623D49E7
:10559000684642F08BF8B378002B3FF4AAAE4FF484
:1055A00080623949A2E6E6683378002B3FF4A1AE69
:1055B00073782BB14FF480623249684642F076F836
:1055C000B3782BB14FF480622F49684642F06EF8F1
:1055D000F3782BB14FF480622C49684642F066F8AC
:1055E0003379002B3FF485AE4FF4806228497DE685
:1055F000E6683378002B3FF47CAE73782BB14FF420
:1056000080622149684642F051F8B3782BB11749BE
:105610004FF48062684642F049F8F3783BE700BFF8
:1056200018BA050022BA05002CBA05003EBA0500DA
:1056300047BA050053BA05005CBA050069BA05000F
:105640007EBA05008FBA05009CBA0500A6BA05000F
:10565000B0BA0500BFBA0500F5BA0500CCBA05001E
:10566000DABA0500ECBA0500FBBA050008BB050074
:1056700014BB050020BB05002BBB050030BB05009B
:1056800035BB05003EBB050048BB050051BB05000E
:1056900055BB0500E6683378002B3FF42AAE7378DB
:1056A0002BB14FF480629E49684641F0FFFFB3780A
:1056B000002BB2D04FF480629A49ABE7E6683378AA
:1056C000002B3FF416AE73782BB14FF480629649ED
:1056D000684641F0EBFFB378002B3FF40AAE4FF47D
:1056E0008062924902E6E6683378002B3FF401AE0F
:1056F00073782BB18A494FF48062684641F0D6FF37
:10570000B378C8E6E6683378002B3FF4F2AD7378DF
:105710002BB14FF480628649684641F0C7FFB378E9
:105720002BB14FF480628349684641F0BFFFF378A4
:105730002BB14FF480627E49684641F0B7FF337960
:10574000002B3FF4D6AD4FF480627B49CEE5E6688E
:105750003378002B3FF4CDAD337B2BB14FF4806217
:105760007649684641F0A2FF737B2BB14FF480620B
:105770007349684641F09AFFB37B2BB14FF48062C6
:105780007049684641F092FFF37B2BB14FF4806281
:105790006D49684641F08AFF337C2BB14FF480623B
:1057A0006A49684641F082FF737C2BB14FF48062F6
:1057B0006749684641F07AFFB37C002B3FF499AD0E
:1057C0004FF48062634991E5E6683378002B3FF43B
:1057D00090AD73782BB14FF480625F49684641F019
:1057E00065FFB3782BB14FF480625C49684641F0A5
:1057F0005DFFF3782BB14FF480625949684641F060
:1058000055FF33792BB14FF480625649684641F019
:105810004DFF73792BB14FF480625349684641F0D4
:1058200045FFB3792BB14FF480625049684641F08F
:105830003DFFF3792BB14FF480624D49684641F04A
:1058400035FF337A2BB14FF480624A49684641F004
:105850002DFF737A2BB14FF480624749684641F0BF
:1058600025FFB37A2BB14FF480624449684641F07A
:105870001DFFF37A2BB14FF480624149684641F035
:1058800015FF337B2BB14FF480623E49684641F0EF
:105890000DFF737B002B3FF42CAD4FF480623A492F
:1058A00024E5E3681A78002A3FF423AD5B78002BE7
:1058B0003FF41FAD4FF48062344917E5E668337852
:1058C000002B3FF416AD7378002B3FF419AF4FF463
:1058D00080621B4911E7E6683378002B3FF409AD7D
:1058E00073782BB14FF480622949684641F0DEFE9F
:1058F000B3782BB14FF480620D49684641F0D6FE73
:10590000F3782BB14FF480622249684641F0CEFE15
:105910003379002B3FF4EDAC4FF480621E49E5E48F
:1059200008BB0500D5BA05005EBB05006BBB0500D2
:10593000F5BA05007FBB050085BB050093BB0500DC
:1059400004BB050098BB05009DBB0500A3BB05007B
:10595000A9BB05000CBC0500AEBB0500B5BB05002E
:10596000BCBB0500C2BB0500C9BB0500D0BB050020
:10597000D7BB0500DEBB0500E5BB0500EBBB0500A2
:10598000F4BB0500F8BB0500FCBB050001BC05002D
:105990000BBC050011BC05001ABC0500E668337895
:1059A000002B3FF4A6AC73782BB14FF48062824990
:1059B000684641F07BFEB3782BB14FF480627F499B
:1059C000684641F073FEF378002B3FF492AC4FF43D
:1059D00080627B498AE4E6683378002B3FF489AC27
:1059E00073782BB14FF480627649684641F05EFED1
:1059F000B3782BB14FF480627349684641F056FE8C
:105A0000F3782BB14FF480627049684641F04EFE46
:105A100033792BB14FF480626D49684641F046FE00
:105A200073792BB14FF480626A49684641F03EFEBB
:105A3000B379002B3FF45DAC4FF48062664955E4C6
:105A4000E6683378002B3FF454AC73782BB14FF4F5
:105A500080626249684641F029FEB3782BB14FF469
:105A600080625F49684641F021FEF378002B3FF4E5
:105A700040AC4FF480625B4938E4E6683378002B31
:105A80003FF437AC7378002B3FF43AAE4FF48062AA
:105A9000554932E6E6683378002B3FF42AAC737838
:105AA0002BB14FF480624D49684641F0FFFDB37859
:105AB000DCE7E6683378002B3FF41BAC73782BB13E
:105AC0004FF480624949684641F0F0FDB3782BB14C
:105AD0004FF480624649684641F0E8FDF3782BB107
